{
	"contracts/MemoryArray.sol": {
		"MemoryArray": {
			"abi": [
				{
					"inputs": [
						{
							"internalType": "address",
							"name": "program",
							"type": "address"
						}
					],
					"name": "addProgram",
					"outputs": [],
					"stateMutability": "nonpayable",
					"type": "function"
				},
				{
					"inputs": [
						{
							"internalType": "address",
							"name": "user",
							"type": "address"
						}
					],
					"name": "getAccessLevel_CORRECT",
					"outputs": [
						{
							"components": [
								{
									"internalType": "address",
									"name": "program",
									"type": "address"
								},
								{
									"internalType": "uint8",
									"name": "level",
									"type": "uint8"
								}
							],
							"internalType": "struct MemoryArray.AccessLevel[]",
							"name": "",
							"type": "tuple[]"
						}
					],
					"stateMutability": "view",
					"type": "function"
				},
				{
					"inputs": [
						{
							"internalType": "address",
							"name": "user",
							"type": "address"
						}
					],
					"name": "getAccessLevel_WRONG",
					"outputs": [
						{
							"components": [
								{
									"internalType": "address",
									"name": "program",
									"type": "address"
								},
								{
									"internalType": "uint8",
									"name": "level",
									"type": "uint8"
								}
							],
							"internalType": "struct MemoryArray.AccessLevel[]",
							"name": "",
							"type": "tuple[]"
						}
					],
					"stateMutability": "view",
					"type": "function"
				},
				{
					"inputs": [
						{
							"internalType": "address",
							"name": "program",
							"type": "address"
						}
					],
					"name": "programExists",
					"outputs": [
						{
							"internalType": "bool",
							"name": "",
							"type": "bool"
						}
					],
					"stateMutability": "view",
					"type": "function"
				},
				{
					"inputs": [
						{
							"internalType": "address",
							"name": "program",
							"type": "address"
						},
						{
							"internalType": "uint8",
							"name": "level",
							"type": "uint8"
						}
					],
					"name": "setAccessLevel",
					"outputs": [],
					"stateMutability": "nonpayable",
					"type": "function"
				}
			],
			"devdoc": {
				"kind": "dev",
				"methods": {},
				"version": 1
			},
			"evm": {
				"assembly": "    /* \"contracts/MemoryArray.sol\":70:2308  contract MemoryArray {... */\n  mstore(0x40, 0x80)\n  callvalue\n  dup1\n  iszero\n  tag_1\n  jumpi\n  0x00\n  dup1\n  revert\ntag_1:\n  pop\n  dataSize(sub_0)\n  dup1\n  dataOffset(sub_0)\n  0x00\n  codecopy\n  0x00\n  return\nstop\n\nsub_0: assembly {\n        /* \"contracts/MemoryArray.sol\":70:2308  contract MemoryArray {... */\n      mstore(0x40, 0x80)\n      callvalue\n      dup1\n      iszero\n      tag_1\n      jumpi\n      0x00\n      dup1\n      revert\n    tag_1:\n      pop\n      jumpi(tag_2, lt(calldatasize, 0x04))\n      shr(0xe0, calldataload(0x00))\n      dup1\n      0x02e55897\n      eq\n      tag_3\n      jumpi\n      dup1\n      0x1bbdec16\n      eq\n      tag_4\n      jumpi\n      dup1\n      0xaf066a00\n      eq\n      tag_5\n      jumpi\n      dup1\n      0xbd4acf03\n      eq\n      tag_6\n      jumpi\n      dup1\n      0xda4d934a\n      eq\n      tag_7\n      jumpi\n    tag_2:\n      0x00\n      dup1\n      revert\n        /* \"contracts/MemoryArray.sol\":302:581  function programExists(address program) public view returns(bool) {... */\n    tag_3:\n      tag_8\n      0x04\n      dup1\n      calldatasize\n      sub\n      dup2\n      add\n      swap1\n      tag_9\n      swap2\n      swap1\n      tag_10\n      jump\t// in\n    tag_9:\n      tag_11\n      jump\t// in\n    tag_8:\n      mload(0x40)\n      tag_12\n      swap2\n      swap1\n      tag_13\n      jump\t// in\n    tag_12:\n      mload(0x40)\n      dup1\n      swap2\n      sub\n      swap1\n      return\n        /* \"contracts/MemoryArray.sol\":1461:2306  function getAccessLevel_CORRECT(address user) public view returns(AccessLevel[] memory) {... */\n    tag_4:\n      tag_14\n      0x04\n      dup1\n      calldatasize\n      sub\n      dup2\n      add\n      swap1\n      tag_15\n      swap2\n      swap1\n      tag_10\n      jump\t// in\n    tag_15:\n      tag_16\n      jump\t// in\n    tag_14:\n      mload(0x40)\n      tag_17\n      swap2\n      swap1\n      tag_18\n      jump\t// in\n    tag_17:\n      mload(0x40)\n      dup1\n      swap2\n      sub\n      swap1\n      return\n        /* \"contracts/MemoryArray.sol\":915:1455  function getAccessLevel_WRONG(address user) public view returns(AccessLevel[] memory) {... */\n    tag_5:\n      tag_19\n      0x04\n      dup1\n      calldatasize\n      sub\n      dup2\n      add\n      swap1\n      tag_20\n      swap2\n      swap1\n      tag_10\n      jump\t// in\n    tag_20:\n      tag_21\n      jump\t// in\n    tag_19:\n      mload(0x40)\n      tag_22\n      swap2\n      swap1\n      tag_18\n      jump\t// in\n    tag_22:\n      mload(0x40)\n      dup1\n      swap2\n      sub\n      swap1\n      return\n        /* \"contracts/MemoryArray.sol\":587:723  function addProgram(address program) public {... */\n    tag_6:\n      tag_23\n      0x04\n      dup1\n      calldatasize\n      sub\n      dup2\n      add\n      swap1\n      tag_24\n      swap2\n      swap1\n      tag_10\n      jump\t// in\n    tag_24:\n      tag_25\n      jump\t// in\n    tag_23:\n      stop\n        /* \"contracts/MemoryArray.sol\":729:909  function setAccessLevel(address program, uint8 level) public {... */\n    tag_7:\n      tag_26\n      0x04\n      dup1\n      calldatasize\n      sub\n      dup2\n      add\n      swap1\n      tag_27\n      swap2\n      swap1\n      tag_28\n      jump\t// in\n    tag_27:\n      tag_29\n      jump\t// in\n    tag_26:\n      stop\n        /* \"contracts/MemoryArray.sol\":302:581  function programExists(address program) public view returns(bool) {... */\n    tag_11:\n        /* \"contracts/MemoryArray.sol\":362:366  bool */\n      0x00\n        /* \"contracts/MemoryArray.sol\":378:389  bool exists */\n      dup1\n        /* \"contracts/MemoryArray.sol\":392:397  false */\n      0x00\n        /* \"contracts/MemoryArray.sol\":378:397  bool exists = false */\n      swap1\n      pop\n        /* \"contracts/MemoryArray.sol\":412:421  uint256 i */\n      0x00\n        /* \"contracts/MemoryArray.sol\":408:551  for(uint256 i = 0; i < programs.length; i++) {... */\n    tag_31:\n        /* \"contracts/MemoryArray.sol\":431:439  programs */\n      0x01\n        /* \"contracts/MemoryArray.sol\":431:446  programs.length */\n      dup1\n      sload\n      swap1\n      pop\n        /* \"contracts/MemoryArray.sol\":427:428  i */\n      dup2\n        /* \"contracts/MemoryArray.sol\":427:446  i < programs.length */\n      lt\n        /* \"contracts/MemoryArray.sol\":408:551  for(uint256 i = 0; i < programs.length; i++) {... */\n      iszero\n      tag_32\n      jumpi\n        /* \"contracts/MemoryArray.sol\":486:493  program */\n      dup4\n        /* \"contracts/MemoryArray.sol\":471:493  programs[i] == program */\n      0xffffffffffffffffffffffffffffffffffffffff\n      and\n        /* \"contracts/MemoryArray.sol\":471:479  programs */\n      0x01\n        /* \"contracts/MemoryArray.sol\":480:481  i */\n      dup3\n        /* \"contracts/MemoryArray.sol\":471:482  programs[i] */\n      dup2\n      sload\n      dup2\n      lt\n      tag_34\n      jumpi\n      mstore(0x00, 0x4e487b7100000000000000000000000000000000000000000000000000000000)\n      mstore(0x04, 0x32)\n      revert(0x00, 0x24)\n    tag_34:\n      swap1\n      0x00\n      mstore\n      keccak256(0x00, 0x20)\n      add\n      0x00\n      swap1\n      sload\n      swap1\n      0x0100\n      exp\n      swap1\n      div\n      0xffffffffffffffffffffffffffffffffffffffff\n      and\n        /* \"contracts/MemoryArray.sol\":471:493  programs[i] == program */\n      0xffffffffffffffffffffffffffffffffffffffff\n      and\n      eq\n        /* \"contracts/MemoryArray.sol\":467:541  if (programs[i] == program) {... */\n      iszero\n      tag_36\n      jumpi\n        /* \"contracts/MemoryArray.sol\":522:526  true */\n      0x01\n        /* \"contracts/MemoryArray.sol\":513:526  exists = true */\n      swap2\n      pop\n        /* \"contracts/MemoryArray.sol\":467:541  if (programs[i] == program) {... */\n    tag_36:\n        /* \"contracts/MemoryArray.sol\":448:451  i++ */\n      dup1\n      dup1\n      tag_37\n      swap1\n      tag_38\n      jump\t// in\n    tag_37:\n      swap2\n      pop\n      pop\n        /* \"contracts/MemoryArray.sol\":408:551  for(uint256 i = 0; i < programs.length; i++) {... */\n      jump(tag_31)\n    tag_32:\n      pop\n        /* \"contracts/MemoryArray.sol\":568:574  exists */\n      dup1\n        /* \"contracts/MemoryArray.sol\":561:574  return exists */\n      swap2\n      pop\n      pop\n        /* \"contracts/MemoryArray.sol\":302:581  function programExists(address program) public view returns(bool) {... */\n      swap2\n      swap1\n      pop\n      jump\t// out\n        /* \"contracts/MemoryArray.sol\":1461:2306  function getAccessLevel_CORRECT(address user) public view returns(AccessLevel[] memory) {... */\n    tag_16:\n        /* \"contracts/MemoryArray.sol\":1527:1547  AccessLevel[] memory */\n      0x60\n        /* \"contracts/MemoryArray.sol\":1559:1573  uint256 length */\n      0x00\n        /* \"contracts/MemoryArray.sol\":1592:1601  uint256 i */\n      dup1\n        /* \"contracts/MemoryArray.sol\":1588:1824  for(uint256 i = 0; i < programs.length; i++) {... */\n    tag_40:\n        /* \"contracts/MemoryArray.sol\":1611:1619  programs */\n      0x01\n        /* \"contracts/MemoryArray.sol\":1611:1626  programs.length */\n      dup1\n      sload\n      swap1\n      pop\n        /* \"contracts/MemoryArray.sol\":1607:1608  i */\n      dup2\n        /* \"contracts/MemoryArray.sol\":1607:1626  i < programs.length */\n      lt\n        /* \"contracts/MemoryArray.sol\":1588:1824  for(uint256 i = 0; i < programs.length; i++) {... */\n      iszero\n      tag_41\n      jumpi\n        /* \"contracts/MemoryArray.sol\":1647:1662  address program */\n      0x00\n        /* \"contracts/MemoryArray.sol\":1665:1673  programs */\n      0x01\n        /* \"contracts/MemoryArray.sol\":1674:1675  i */\n      dup3\n        /* \"contracts/MemoryArray.sol\":1665:1676  programs[i] */\n      dup2\n      sload\n      dup2\n      lt\n      tag_43\n      jumpi\n      mstore(0x00, 0x4e487b7100000000000000000000000000000000000000000000000000000000)\n      mstore(0x04, 0x32)\n      revert(0x00, 0x24)\n    tag_43:\n      swap1\n      0x00\n      mstore\n      keccak256(0x00, 0x20)\n      add\n      0x00\n      swap1\n      sload\n      swap1\n      0x0100\n      exp\n      swap1\n      div\n      0xffffffffffffffffffffffffffffffffffffffff\n      and\n        /* \"contracts/MemoryArray.sol\":1647:1676  address program = programs[i] */\n      swap1\n      pop\n        /* \"contracts/MemoryArray.sol\":1690:1707  uint8 accessLevel */\n      0x00\n        /* \"contracts/MemoryArray.sol\":1710:1722  accessLevels */\n      dup1\n        /* \"contracts/MemoryArray.sol\":1710:1728  accessLevels[user] */\n      0x00\n        /* \"contracts/MemoryArray.sol\":1723:1727  user */\n      dup8\n        /* \"contracts/MemoryArray.sol\":1710:1728  accessLevels[user] */\n      0xffffffffffffffffffffffffffffffffffffffff\n      and\n      0xffffffffffffffffffffffffffffffffffffffff\n      and\n      dup2\n      mstore\n      0x20\n      add\n      swap1\n      dup2\n      mstore\n      0x20\n      add\n      0x00\n      keccak256\n        /* \"contracts/MemoryArray.sol\":1710:1737  accessLevels[user][program] */\n      0x00\n        /* \"contracts/MemoryArray.sol\":1729:1736  program */\n      dup4\n        /* \"contracts/MemoryArray.sol\":1710:1737  accessLevels[user][program] */\n      0xffffffffffffffffffffffffffffffffffffffff\n      and\n      0xffffffffffffffffffffffffffffffffffffffff\n      and\n      dup2\n      mstore\n      0x20\n      add\n      swap1\n      dup2\n      mstore\n      0x20\n      add\n      0x00\n      keccak256\n      0x00\n      swap1\n      sload\n      swap1\n      0x0100\n      exp\n      swap1\n      div\n      0xff\n      and\n        /* \"contracts/MemoryArray.sol\":1690:1737  uint8 accessLevel = accessLevels[user][program] */\n      swap1\n      pop\n        /* \"contracts/MemoryArray.sol\":1770:1771  0 */\n      0x00\n        /* \"contracts/MemoryArray.sol\":1756:1767  accessLevel */\n      dup2\n        /* \"contracts/MemoryArray.sol\":1756:1771  accessLevel > 0 */\n      0xff\n      and\n      gt\n        /* \"contracts/MemoryArray.sol\":1752:1814  if (accessLevel > 0) {... */\n      iszero\n      tag_45\n      jumpi\n        /* \"contracts/MemoryArray.sol\":1791:1799  length++ */\n      dup4\n      dup1\n      tag_46\n      swap1\n      tag_38\n      jump\t// in\n    tag_46:\n      swap5\n      pop\n      pop\n        /* \"contracts/MemoryArray.sol\":1752:1814  if (accessLevel > 0) {... */\n    tag_45:\n        /* \"contracts/MemoryArray.sol\":1588:1824  for(uint256 i = 0; i < programs.length; i++) {... */\n      pop\n      pop\n        /* \"contracts/MemoryArray.sol\":1628:1631  i++ */\n      dup1\n      dup1\n      tag_47\n      swap1\n      tag_38\n      jump\t// in\n    tag_47:\n      swap2\n      pop\n      pop\n        /* \"contracts/MemoryArray.sol\":1588:1824  for(uint256 i = 0; i < programs.length; i++) {... */\n      jump(tag_40)\n    tag_41:\n      pop\n        /* \"contracts/MemoryArray.sol\":1834:1861  AccessLevel[] memory result */\n      0x00\n        /* \"contracts/MemoryArray.sol\":1882:1888  length */\n      dup2\n        /* \"contracts/MemoryArray.sol\":1864:1889  new AccessLevel[](length) */\n      0xffffffffffffffff\n      dup2\n      gt\n      iszero\n      tag_48\n      jumpi\n      mstore(0x00, 0x4e487b7100000000000000000000000000000000000000000000000000000000)\n      mstore(0x04, 0x41)\n      revert(0x00, 0x24)\n    tag_48:\n      mload(0x40)\n      swap1\n      dup1\n      dup3\n      mstore\n      dup1\n      0x20\n      mul\n      0x20\n      add\n      dup3\n      add\n      0x40\n      mstore\n      dup1\n      iszero\n      tag_49\n      jumpi\n      dup2\n      0x20\n      add\n    tag_50:\n      tag_51\n      tag_52\n      jump\t// in\n    tag_51:\n      dup2\n      mstore\n      0x20\n      add\n      swap1\n      0x01\n      swap1\n      sub\n      swap1\n      dup2\n      tag_50\n      jumpi\n      swap1\n      pop\n    tag_49:\n      pop\n        /* \"contracts/MemoryArray.sol\":1834:1889  AccessLevel[] memory result = new AccessLevel[](length) */\n      swap1\n      pop\n        /* \"contracts/MemoryArray.sol\":1900:1909  uint256 j */\n      0x00\n        /* \"contracts/MemoryArray.sol\":1928:1937  uint256 i */\n      dup1\n        /* \"contracts/MemoryArray.sol\":1924:2276  for(uint256 i = 0; i < programs.length; i++) {... */\n    tag_53:\n        /* \"contracts/MemoryArray.sol\":1947:1955  programs */\n      0x01\n        /* \"contracts/MemoryArray.sol\":1947:1962  programs.length */\n      dup1\n      sload\n      swap1\n      pop\n        /* \"contracts/MemoryArray.sol\":1943:1944  i */\n      dup2\n        /* \"contracts/MemoryArray.sol\":1943:1962  i < programs.length */\n      lt\n        /* \"contracts/MemoryArray.sol\":1924:2276  for(uint256 i = 0; i < programs.length; i++) {... */\n      iszero\n      tag_54\n      jumpi\n        /* \"contracts/MemoryArray.sol\":1983:1998  address program */\n      0x00\n        /* \"contracts/MemoryArray.sol\":2001:2009  programs */\n      0x01\n        /* \"contracts/MemoryArray.sol\":2010:2011  i */\n      dup3\n        /* \"contracts/MemoryArray.sol\":2001:2012  programs[i] */\n      dup2\n      sload\n      dup2\n      lt\n      tag_56\n      jumpi\n      mstore(0x00, 0x4e487b7100000000000000000000000000000000000000000000000000000000)\n      mstore(0x04, 0x32)\n      revert(0x00, 0x24)\n    tag_56:\n      swap1\n      0x00\n      mstore\n      keccak256(0x00, 0x20)\n      add\n      0x00\n      swap1\n      sload\n      swap1\n      0x0100\n      exp\n      swap1\n      div\n      0xffffffffffffffffffffffffffffffffffffffff\n      and\n        /* \"contracts/MemoryArray.sol\":1983:2012  address program = programs[i] */\n      swap1\n      pop\n        /* \"contracts/MemoryArray.sol\":2026:2043  uint8 accessLevel */\n      0x00\n        /* \"contracts/MemoryArray.sol\":2046:2058  accessLevels */\n      dup1\n        /* \"contracts/MemoryArray.sol\":2046:2064  accessLevels[user] */\n      0x00\n        /* \"contracts/MemoryArray.sol\":2059:2063  user */\n      dup10\n        /* \"contracts/MemoryArray.sol\":2046:2064  accessLevels[user] */\n      0xffffffffffffffffffffffffffffffffffffffff\n      and\n      0xffffffffffffffffffffffffffffffffffffffff\n      and\n      dup2\n      mstore\n      0x20\n      add\n      swap1\n      dup2\n      mstore\n      0x20\n      add\n      0x00\n      keccak256\n        /* \"contracts/MemoryArray.sol\":2046:2073  accessLevels[user][program] */\n      0x00\n        /* \"contracts/MemoryArray.sol\":2065:2072  program */\n      dup4\n        /* \"contracts/MemoryArray.sol\":2046:2073  accessLevels[user][program] */\n      0xffffffffffffffffffffffffffffffffffffffff\n      and\n      0xffffffffffffffffffffffffffffffffffffffff\n      and\n      dup2\n      mstore\n      0x20\n      add\n      swap1\n      dup2\n      mstore\n      0x20\n      add\n      0x00\n      keccak256\n      0x00\n      swap1\n      sload\n      swap1\n      0x0100\n      exp\n      swap1\n      div\n      0xff\n      and\n        /* \"contracts/MemoryArray.sol\":2026:2073  uint8 accessLevel = accessLevels[user][program] */\n      swap1\n      pop\n        /* \"contracts/MemoryArray.sol\":2106:2107  0 */\n      0x00\n        /* \"contracts/MemoryArray.sol\":2092:2103  accessLevel */\n      dup2\n        /* \"contracts/MemoryArray.sol\":2092:2107  accessLevel > 0 */\n      0xff\n      and\n      gt\n        /* \"contracts/MemoryArray.sol\":2088:2266  if (accessLevel > 0) {... */\n      iszero\n      tag_58\n      jumpi\n        /* \"contracts/MemoryArray.sol\":2139:2230  AccessLevel(... */\n      mload(0x40)\n      dup1\n      0x40\n      add\n      0x40\n      mstore\n      dup1\n        /* \"contracts/MemoryArray.sol\":2172:2179  program */\n      dup4\n        /* \"contracts/MemoryArray.sol\":2139:2230  AccessLevel(... */\n      0xffffffffffffffffffffffffffffffffffffffff\n      and\n      dup2\n      mstore\n      0x20\n      add\n        /* \"contracts/MemoryArray.sol\":2201:2212  accessLevel */\n      dup3\n        /* \"contracts/MemoryArray.sol\":2139:2230  AccessLevel(... */\n      0xff\n      and\n      dup2\n      mstore\n      pop\n        /* \"contracts/MemoryArray.sol\":2127:2133  result */\n      dup6\n        /* \"contracts/MemoryArray.sol\":2134:2135  j */\n      dup6\n        /* \"contracts/MemoryArray.sol\":2127:2136  result[j] */\n      dup2\n      mload\n      dup2\n      lt\n      tag_59\n      jumpi\n      mstore(0x00, 0x4e487b7100000000000000000000000000000000000000000000000000000000)\n      mstore(0x04, 0x32)\n      revert(0x00, 0x24)\n    tag_59:\n      0x20\n      mul\n      0x20\n      add\n      add\n        /* \"contracts/MemoryArray.sol\":2127:2230  result[j] = AccessLevel(... */\n      dup2\n      swap1\n      mstore\n      pop\n        /* \"contracts/MemoryArray.sol\":2248:2251  j++ */\n      dup4\n      dup1\n      tag_60\n      swap1\n      tag_38\n      jump\t// in\n    tag_60:\n      swap5\n      pop\n      pop\n        /* \"contracts/MemoryArray.sol\":2088:2266  if (accessLevel > 0) {... */\n    tag_58:\n        /* \"contracts/MemoryArray.sol\":1924:2276  for(uint256 i = 0; i < programs.length; i++) {... */\n      pop\n      pop\n        /* \"contracts/MemoryArray.sol\":1964:1967  i++ */\n      dup1\n      dup1\n      tag_61\n      swap1\n      tag_38\n      jump\t// in\n    tag_61:\n      swap2\n      pop\n      pop\n        /* \"contracts/MemoryArray.sol\":1924:2276  for(uint256 i = 0; i < programs.length; i++) {... */\n      jump(tag_53)\n    tag_54:\n      pop\n        /* \"contracts/MemoryArray.sol\":2293:2299  result */\n      dup2\n        /* \"contracts/MemoryArray.sol\":2286:2299  return result */\n      swap4\n      pop\n      pop\n      pop\n      pop\n        /* \"contracts/MemoryArray.sol\":1461:2306  function getAccessLevel_CORRECT(address user) public view returns(AccessLevel[] memory) {... */\n      swap2\n      swap1\n      pop\n      jump\t// out\n        /* \"contracts/MemoryArray.sol\":915:1455  function getAccessLevel_WRONG(address user) public view returns(AccessLevel[] memory) {... */\n    tag_21:\n        /* \"contracts/MemoryArray.sol\":979:999  AccessLevel[] memory */\n      0x60\n        /* \"contracts/MemoryArray.sol\":1011:1038  AccessLevel[] memory result */\n      dup1\n        /* \"contracts/MemoryArray.sol\":1049:1058  uint256 j */\n      0x00\n        /* \"contracts/MemoryArray.sol\":1077:1086  uint256 i */\n      dup1\n        /* \"contracts/MemoryArray.sol\":1073:1425  for(uint256 i = 0; i < programs.length; i++) {... */\n    tag_63:\n        /* \"contracts/MemoryArray.sol\":1096:1104  programs */\n      0x01\n        /* \"contracts/MemoryArray.sol\":1096:1111  programs.length */\n      dup1\n      sload\n      swap1\n      pop\n        /* \"contracts/MemoryArray.sol\":1092:1093  i */\n      dup2\n        /* \"contracts/MemoryArray.sol\":1092:1111  i < programs.length */\n      lt\n        /* \"contracts/MemoryArray.sol\":1073:1425  for(uint256 i = 0; i < programs.length; i++) {... */\n      iszero\n      tag_64\n      jumpi\n        /* \"contracts/MemoryArray.sol\":1132:1147  address program */\n      0x00\n        /* \"contracts/MemoryArray.sol\":1150:1158  programs */\n      0x01\n        /* \"contracts/MemoryArray.sol\":1159:1160  i */\n      dup3\n        /* \"contracts/MemoryArray.sol\":1150:1161  programs[i] */\n      dup2\n      sload\n      dup2\n      lt\n      tag_66\n      jumpi\n      mstore(0x00, 0x4e487b7100000000000000000000000000000000000000000000000000000000)\n      mstore(0x04, 0x32)\n      revert(0x00, 0x24)\n    tag_66:\n      swap1\n      0x00\n      mstore\n      keccak256(0x00, 0x20)\n      add\n      0x00\n      swap1\n      sload\n      swap1\n      0x0100\n      exp\n      swap1\n      div\n      0xffffffffffffffffffffffffffffffffffffffff\n      and\n        /* \"contracts/MemoryArray.sol\":1132:1161  address program = programs[i] */\n      swap1\n      pop\n        /* \"contracts/MemoryArray.sol\":1175:1192  uint8 accessLevel */\n      0x00\n        /* \"contracts/MemoryArray.sol\":1195:1207  accessLevels */\n      dup1\n        /* \"contracts/MemoryArray.sol\":1195:1213  accessLevels[user] */\n      0x00\n        /* \"contracts/MemoryArray.sol\":1208:1212  user */\n      dup9\n        /* \"contracts/MemoryArray.sol\":1195:1213  accessLevels[user] */\n      0xffffffffffffffffffffffffffffffffffffffff\n      and\n      0xffffffffffffffffffffffffffffffffffffffff\n      and\n      dup2\n      mstore\n      0x20\n      add\n      swap1\n      dup2\n      mstore\n      0x20\n      add\n      0x00\n      keccak256\n        /* \"contracts/MemoryArray.sol\":1195:1222  accessLevels[user][program] */\n      0x00\n        /* \"contracts/MemoryArray.sol\":1214:1221  program */\n      dup4\n        /* \"contracts/MemoryArray.sol\":1195:1222  accessLevels[user][program] */\n      0xffffffffffffffffffffffffffffffffffffffff\n      and\n      0xffffffffffffffffffffffffffffffffffffffff\n      and\n      dup2\n      mstore\n      0x20\n      add\n      swap1\n      dup2\n      mstore\n      0x20\n      add\n      0x00\n      keccak256\n      0x00\n      swap1\n      sload\n      swap1\n      0x0100\n      exp\n      swap1\n      div\n      0xff\n      and\n        /* \"contracts/MemoryArray.sol\":1175:1222  uint8 accessLevel = accessLevels[user][program] */\n      swap1\n      pop\n        /* \"contracts/MemoryArray.sol\":1255:1256  0 */\n      0x00\n        /* \"contracts/MemoryArray.sol\":1241:1252  accessLevel */\n      dup2\n        /* \"contracts/MemoryArray.sol\":1241:1256  accessLevel > 0 */\n      0xff\n      and\n      gt\n        /* \"contracts/MemoryArray.sol\":1237:1415  if (accessLevel > 0) {... */\n      iszero\n      tag_68\n      jumpi\n        /* \"contracts/MemoryArray.sol\":1288:1379  AccessLevel(... */\n      mload(0x40)\n      dup1\n      0x40\n      add\n      0x40\n      mstore\n      dup1\n        /* \"contracts/MemoryArray.sol\":1321:1328  program */\n      dup4\n        /* \"contracts/MemoryArray.sol\":1288:1379  AccessLevel(... */\n      0xffffffffffffffffffffffffffffffffffffffff\n      and\n      dup2\n      mstore\n      0x20\n      add\n        /* \"contracts/MemoryArray.sol\":1350:1361  accessLevel */\n      dup3\n        /* \"contracts/MemoryArray.sol\":1288:1379  AccessLevel(... */\n      0xff\n      and\n      dup2\n      mstore\n      pop\n        /* \"contracts/MemoryArray.sol\":1276:1282  result */\n      dup6\n        /* \"contracts/MemoryArray.sol\":1283:1284  j */\n      dup6\n        /* \"contracts/MemoryArray.sol\":1276:1285  result[j] */\n      dup2\n      mload\n      dup2\n      lt\n      tag_69\n      jumpi\n      mstore(0x00, 0x4e487b7100000000000000000000000000000000000000000000000000000000)\n      mstore(0x04, 0x32)\n      revert(0x00, 0x24)\n    tag_69:\n      0x20\n      mul\n      0x20\n      add\n      add\n        /* \"contracts/MemoryArray.sol\":1276:1379  result[j] = AccessLevel(... */\n      dup2\n      swap1\n      mstore\n      pop\n        /* \"contracts/MemoryArray.sol\":1397:1400  j++ */\n      dup4\n      dup1\n      tag_70\n      swap1\n      tag_38\n      jump\t// in\n    tag_70:\n      swap5\n      pop\n      pop\n        /* \"contracts/MemoryArray.sol\":1237:1415  if (accessLevel > 0) {... */\n    tag_68:\n        /* \"contracts/MemoryArray.sol\":1073:1425  for(uint256 i = 0; i < programs.length; i++) {... */\n      pop\n      pop\n        /* \"contracts/MemoryArray.sol\":1113:1116  i++ */\n      dup1\n      dup1\n      tag_71\n      swap1\n      tag_38\n      jump\t// in\n    tag_71:\n      swap2\n      pop\n      pop\n        /* \"contracts/MemoryArray.sol\":1073:1425  for(uint256 i = 0; i < programs.length; i++) {... */\n      jump(tag_63)\n    tag_64:\n      pop\n        /* \"contracts/MemoryArray.sol\":1442:1448  result */\n      dup2\n        /* \"contracts/MemoryArray.sol\":1435:1448  return result */\n      swap3\n      pop\n      pop\n      pop\n        /* \"contracts/MemoryArray.sol\":915:1455  function getAccessLevel_WRONG(address user) public view returns(AccessLevel[] memory) {... */\n      swap2\n      swap1\n      pop\n      jump\t// out\n        /* \"contracts/MemoryArray.sol\":587:723  function addProgram(address program) public {... */\n    tag_25:\n        /* \"contracts/MemoryArray.sol\":646:668  programExists(program) */\n      tag_73\n        /* \"contracts/MemoryArray.sol\":660:667  program */\n      dup2\n        /* \"contracts/MemoryArray.sol\":646:659  programExists */\n      tag_11\n        /* \"contracts/MemoryArray.sol\":646:668  programExists(program) */\n      jump\t// in\n    tag_73:\n        /* \"contracts/MemoryArray.sol\":641:717  if (!programExists(program)) {... */\n      tag_74\n      jumpi\n        /* \"contracts/MemoryArray.sol\":684:692  programs */\n      0x01\n        /* \"contracts/MemoryArray.sol\":698:705  program */\n      dup2\n        /* \"contracts/MemoryArray.sol\":684:706  programs.push(program) */\n      swap1\n      dup1\n      0x01\n      dup2\n      sload\n      add\n      dup1\n      dup3\n      sstore\n      dup1\n      swap2\n      pop\n      pop\n      0x01\n      swap1\n      sub\n      swap1\n      0x00\n      mstore\n      keccak256(0x00, 0x20)\n      add\n      0x00\n      swap1\n      swap2\n      swap1\n      swap2\n      swap1\n      swap2\n      0x0100\n      exp\n      dup2\n      sload\n      dup2\n      0xffffffffffffffffffffffffffffffffffffffff\n      mul\n      not\n      and\n      swap1\n      dup4\n      0xffffffffffffffffffffffffffffffffffffffff\n      and\n      mul\n      or\n      swap1\n      sstore\n      pop\n        /* \"contracts/MemoryArray.sol\":641:717  if (!programExists(program)) {... */\n    tag_74:\n        /* \"contracts/MemoryArray.sol\":587:723  function addProgram(address program) public {... */\n      pop\n      jump\t// out\n        /* \"contracts/MemoryArray.sol\":729:909  function setAccessLevel(address program, uint8 level) public {... */\n    tag_29:\n        /* \"contracts/MemoryArray.sol\":808:830  programExists(program) */\n      tag_77\n        /* \"contracts/MemoryArray.sol\":822:829  program */\n      dup3\n        /* \"contracts/MemoryArray.sol\":808:821  programExists */\n      tag_11\n        /* \"contracts/MemoryArray.sol\":808:830  programExists(program) */\n      jump\t// in\n    tag_77:\n        /* \"contracts/MemoryArray.sol\":800:850  require(programExists(program), \"Unknown program\") */\n      tag_78\n      jumpi\n      mload(0x40)\n      0x08c379a000000000000000000000000000000000000000000000000000000000\n      dup2\n      mstore\n      0x04\n      add\n      tag_79\n      swap1\n      tag_80\n      jump\t// in\n    tag_79:\n      mload(0x40)\n      dup1\n      swap2\n      sub\n      swap1\n      revert\n    tag_78:\n        /* \"contracts/MemoryArray.sol\":897:902  level */\n      dup1\n        /* \"contracts/MemoryArray.sol\":861:873  accessLevels */\n      0x00\n        /* \"contracts/MemoryArray.sol\":861:885  accessLevels[msg.sender] */\n      dup1\n        /* \"contracts/MemoryArray.sol\":874:884  msg.sender */\n      caller\n        /* \"contracts/MemoryArray.sol\":861:885  accessLevels[msg.sender] */\n      0xffffffffffffffffffffffffffffffffffffffff\n      and\n      0xffffffffffffffffffffffffffffffffffffffff\n      and\n      dup2\n      mstore\n      0x20\n      add\n      swap1\n      dup2\n      mstore\n      0x20\n      add\n      0x00\n      keccak256\n        /* \"contracts/MemoryArray.sol\":861:894  accessLevels[msg.sender][program] */\n      0x00\n        /* \"contracts/MemoryArray.sol\":886:893  program */\n      dup5\n        /* \"contracts/MemoryArray.sol\":861:894  accessLevels[msg.sender][program] */\n      0xffffffffffffffffffffffffffffffffffffffff\n      and\n      0xffffffffffffffffffffffffffffffffffffffff\n      and\n      dup2\n      mstore\n      0x20\n      add\n      swap1\n      dup2\n      mstore\n      0x20\n      add\n      0x00\n      keccak256\n      0x00\n        /* \"contracts/MemoryArray.sol\":861:902  accessLevels[msg.sender][program] = level */\n      0x0100\n      exp\n      dup2\n      sload\n      dup2\n      0xff\n      mul\n      not\n      and\n      swap1\n      dup4\n      0xff\n      and\n      mul\n      or\n      swap1\n      sstore\n      pop\n        /* \"contracts/MemoryArray.sol\":729:909  function setAccessLevel(address program, uint8 level) public {... */\n      pop\n      pop\n      jump\t// out\n    tag_52:\n      mload(0x40)\n      dup1\n      0x40\n      add\n      0x40\n      mstore\n      dup1\n      and(0xffffffffffffffffffffffffffffffffffffffff, 0x00)\n      dup2\n      mstore\n      0x20\n      add\n      and(0xff, 0x00)\n      dup2\n      mstore\n      pop\n      swap1\n      jump\t// out\n        /* \"#utility.yul\":7:146   */\n    tag_82:\n      0x00\n        /* \"#utility.yul\":91:97   */\n      dup2\n        /* \"#utility.yul\":78:98   */\n      calldataload\n        /* \"#utility.yul\":69:98   */\n      swap1\n      pop\n        /* \"#utility.yul\":107:140   */\n      tag_84\n        /* \"#utility.yul\":134:139   */\n      dup2\n        /* \"#utility.yul\":107:140   */\n      tag_85\n      jump\t// in\n    tag_84:\n        /* \"#utility.yul\":59:146   */\n      swap3\n      swap2\n      pop\n      pop\n      jump\t// out\n        /* \"#utility.yul\":152:287   */\n    tag_86:\n      0x00\n        /* \"#utility.yul\":234:240   */\n      dup2\n        /* \"#utility.yul\":221:241   */\n      calldataload\n        /* \"#utility.yul\":212:241   */\n      swap1\n      pop\n        /* \"#utility.yul\":250:281   */\n      tag_88\n        /* \"#utility.yul\":275:280   */\n      dup2\n        /* \"#utility.yul\":250:281   */\n      tag_89\n      jump\t// in\n    tag_88:\n        /* \"#utility.yul\":202:287   */\n      swap3\n      swap2\n      pop\n      pop\n      jump\t// out\n        /* \"#utility.yul\":293:555   */\n    tag_10:\n      0x00\n        /* \"#utility.yul\":401:403   */\n      0x20\n        /* \"#utility.yul\":389:398   */\n      dup3\n        /* \"#utility.yul\":380:387   */\n      dup5\n        /* \"#utility.yul\":376:399   */\n      sub\n        /* \"#utility.yul\":372:404   */\n      slt\n        /* \"#utility.yul\":369:371   */\n      iszero\n      tag_91\n      jumpi\n        /* \"#utility.yul\":417:418   */\n      0x00\n        /* \"#utility.yul\":414:415   */\n      dup1\n        /* \"#utility.yul\":407:419   */\n      revert\n        /* \"#utility.yul\":369:371   */\n    tag_91:\n        /* \"#utility.yul\":460:461   */\n      0x00\n        /* \"#utility.yul\":485:538   */\n      tag_92\n        /* \"#utility.yul\":530:537   */\n      dup5\n        /* \"#utility.yul\":521:527   */\n      dup3\n        /* \"#utility.yul\":510:519   */\n      dup6\n        /* \"#utility.yul\":506:528   */\n      add\n        /* \"#utility.yul\":485:538   */\n      tag_82\n      jump\t// in\n    tag_92:\n        /* \"#utility.yul\":475:538   */\n      swap2\n      pop\n        /* \"#utility.yul\":431:548   */\n      pop\n        /* \"#utility.yul\":359:555   */\n      swap3\n      swap2\n      pop\n      pop\n      jump\t// out\n        /* \"#utility.yul\":561:964   */\n    tag_28:\n      0x00\n      dup1\n        /* \"#utility.yul\":684:686   */\n      0x40\n        /* \"#utility.yul\":672:681   */\n      dup4\n        /* \"#utility.yul\":663:670   */\n      dup6\n        /* \"#utility.yul\":659:682   */\n      sub\n        /* \"#utility.yul\":655:687   */\n      slt\n        /* \"#utility.yul\":652:654   */\n      iszero\n      tag_94\n      jumpi\n        /* \"#utility.yul\":700:701   */\n      0x00\n        /* \"#utility.yul\":697:698   */\n      dup1\n        /* \"#utility.yul\":690:702   */\n      revert\n        /* \"#utility.yul\":652:654   */\n    tag_94:\n        /* \"#utility.yul\":743:744   */\n      0x00\n        /* \"#utility.yul\":768:821   */\n      tag_95\n        /* \"#utility.yul\":813:820   */\n      dup6\n        /* \"#utility.yul\":804:810   */\n      dup3\n        /* \"#utility.yul\":793:802   */\n      dup7\n        /* \"#utility.yul\":789:811   */\n      add\n        /* \"#utility.yul\":768:821   */\n      tag_82\n      jump\t// in\n    tag_95:\n        /* \"#utility.yul\":758:821   */\n      swap3\n      pop\n        /* \"#utility.yul\":714:831   */\n      pop\n        /* \"#utility.yul\":870:872   */\n      0x20\n        /* \"#utility.yul\":896:947   */\n      tag_96\n        /* \"#utility.yul\":939:946   */\n      dup6\n        /* \"#utility.yul\":930:936   */\n      dup3\n        /* \"#utility.yul\":919:928   */\n      dup7\n        /* \"#utility.yul\":915:937   */\n      add\n        /* \"#utility.yul\":896:947   */\n      tag_86\n      jump\t// in\n    tag_96:\n        /* \"#utility.yul\":886:947   */\n      swap2\n      pop\n        /* \"#utility.yul\":841:957   */\n      pop\n        /* \"#utility.yul\":642:964   */\n      swap3\n      pop\n      swap3\n      swap1\n      pop\n      jump\t// out\n        /* \"#utility.yul\":970:1253   */\n    tag_97:\n      0x00\n        /* \"#utility.yul\":1112:1210   */\n      tag_99\n        /* \"#utility.yul\":1206:1209   */\n      dup4\n        /* \"#utility.yul\":1198:1204   */\n      dup4\n        /* \"#utility.yul\":1112:1210   */\n      tag_100\n      jump\t// in\n    tag_99:\n        /* \"#utility.yul\":1242:1246   */\n      0x40\n        /* \"#utility.yul\":1237:1240   */\n      dup4\n        /* \"#utility.yul\":1233:1247   */\n      add\n        /* \"#utility.yul\":1219:1247   */\n      swap1\n      pop\n        /* \"#utility.yul\":1102:1253   */\n      swap3\n      swap2\n      pop\n      pop\n      jump\t// out\n        /* \"#utility.yul\":1259:1367   */\n    tag_101:\n        /* \"#utility.yul\":1336:1360   */\n      tag_103\n        /* \"#utility.yul\":1354:1359   */\n      dup2\n        /* \"#utility.yul\":1336:1360   */\n      tag_104\n      jump\t// in\n    tag_103:\n        /* \"#utility.yul\":1331:1334   */\n      dup3\n        /* \"#utility.yul\":1324:1361   */\n      mstore\n        /* \"#utility.yul\":1314:1367   */\n      pop\n      pop\n      jump\t// out\n        /* \"#utility.yul\":1449:2389   */\n    tag_105:\n      0x00\n        /* \"#utility.yul\":1649:1729   */\n      tag_107\n        /* \"#utility.yul\":1723:1728   */\n      dup3\n        /* \"#utility.yul\":1649:1729   */\n      tag_108\n      jump\t// in\n    tag_107:\n        /* \"#utility.yul\":1745:1857   */\n      tag_109\n        /* \"#utility.yul\":1850:1856   */\n      dup2\n        /* \"#utility.yul\":1845:1848   */\n      dup6\n        /* \"#utility.yul\":1745:1857   */\n      tag_110\n      jump\t// in\n    tag_109:\n        /* \"#utility.yul\":1738:1857   */\n      swap4\n      pop\n        /* \"#utility.yul\":1881:1963   */\n      tag_111\n        /* \"#utility.yul\":1957:1962   */\n      dup4\n        /* \"#utility.yul\":1881:1963   */\n      tag_112\n      jump\t// in\n    tag_111:\n        /* \"#utility.yul\":1986:1993   */\n      dup1\n        /* \"#utility.yul\":2017:2018   */\n      0x00\n        /* \"#utility.yul\":2002:2364   */\n    tag_113:\n        /* \"#utility.yul\":2027:2033   */\n      dup4\n        /* \"#utility.yul\":2024:2025   */\n      dup2\n        /* \"#utility.yul\":2021:2034   */\n      lt\n        /* \"#utility.yul\":2002:2364   */\n      iszero\n      tag_115\n      jumpi\n        /* \"#utility.yul\":2103:2109   */\n      dup2\n        /* \"#utility.yul\":2097:2110   */\n      mload\n        /* \"#utility.yul\":2130:2245   */\n      tag_116\n        /* \"#utility.yul\":2241:2244   */\n      dup9\n        /* \"#utility.yul\":2226:2239   */\n      dup3\n        /* \"#utility.yul\":2130:2245   */\n      tag_97\n      jump\t// in\n    tag_116:\n        /* \"#utility.yul\":2123:2245   */\n      swap8\n      pop\n        /* \"#utility.yul\":2268:2354   */\n      tag_117\n        /* \"#utility.yul\":2347:2353   */\n      dup4\n        /* \"#utility.yul\":2268:2354   */\n      tag_118\n      jump\t// in\n    tag_117:\n        /* \"#utility.yul\":2258:2354   */\n      swap3\n      pop\n        /* \"#utility.yul\":2062:2364   */\n      pop\n        /* \"#utility.yul\":2049:2050   */\n      0x01\n        /* \"#utility.yul\":2046:2047   */\n      dup2\n        /* \"#utility.yul\":2042:2051   */\n      add\n        /* \"#utility.yul\":2037:2051   */\n      swap1\n      pop\n        /* \"#utility.yul\":2002:2364   */\n      jump(tag_113)\n    tag_115:\n        /* \"#utility.yul\":2006:2020   */\n      pop\n        /* \"#utility.yul\":2380:2383   */\n      dup6\n        /* \"#utility.yul\":2373:2383   */\n      swap4\n      pop\n        /* \"#utility.yul\":1625:2389   */\n      pop\n      pop\n      pop\n      swap3\n      swap2\n      pop\n      pop\n      jump\t// out\n        /* \"#utility.yul\":2395:2504   */\n    tag_119:\n        /* \"#utility.yul\":2476:2497   */\n      tag_121\n        /* \"#utility.yul\":2491:2496   */\n      dup2\n        /* \"#utility.yul\":2476:2497   */\n      tag_122\n      jump\t// in\n    tag_121:\n        /* \"#utility.yul\":2471:2474   */\n      dup3\n        /* \"#utility.yul\":2464:2498   */\n      mstore\n        /* \"#utility.yul\":2454:2504   */\n      pop\n      pop\n      jump\t// out\n        /* \"#utility.yul\":2510:2876   */\n    tag_123:\n      0x00\n        /* \"#utility.yul\":2673:2740   */\n      tag_125\n        /* \"#utility.yul\":2737:2739   */\n      0x0f\n        /* \"#utility.yul\":2732:2735   */\n      dup4\n        /* \"#utility.yul\":2673:2740   */\n      tag_126\n      jump\t// in\n    tag_125:\n        /* \"#utility.yul\":2666:2740   */\n      swap2\n      pop\n        /* \"#utility.yul\":2749:2842   */\n      tag_127\n        /* \"#utility.yul\":2838:2841   */\n      dup3\n        /* \"#utility.yul\":2749:2842   */\n      tag_128\n      jump\t// in\n    tag_127:\n        /* \"#utility.yul\":2867:2869   */\n      0x20\n        /* \"#utility.yul\":2862:2865   */\n      dup3\n        /* \"#utility.yul\":2858:2870   */\n      add\n        /* \"#utility.yul\":2851:2870   */\n      swap1\n      pop\n        /* \"#utility.yul\":2656:2876   */\n      swap2\n      swap1\n      pop\n      jump\t// out\n        /* \"#utility.yul\":2954:3453   */\n    tag_100:\n        /* \"#utility.yul\":3093:3097   */\n      0x40\n        /* \"#utility.yul\":3088:3091   */\n      dup3\n        /* \"#utility.yul\":3084:3098   */\n      add\n        /* \"#utility.yul\":3183:3187   */\n      0x00\n        /* \"#utility.yul\":3176:3181   */\n      dup3\n        /* \"#utility.yul\":3172:3188   */\n      add\n        /* \"#utility.yul\":3166:3189   */\n      mload\n        /* \"#utility.yul\":3202:3265   */\n      tag_130\n        /* \"#utility.yul\":3259:3263   */\n      0x00\n        /* \"#utility.yul\":3254:3257   */\n      dup6\n        /* \"#utility.yul\":3250:3264   */\n      add\n        /* \"#utility.yul\":3236:3248   */\n      dup3\n        /* \"#utility.yul\":3202:3265   */\n      tag_101\n      jump\t// in\n    tag_130:\n        /* \"#utility.yul\":3108:3275   */\n      pop\n        /* \"#utility.yul\":3358:3362   */\n      0x20\n        /* \"#utility.yul\":3351:3356   */\n      dup3\n        /* \"#utility.yul\":3347:3363   */\n      add\n        /* \"#utility.yul\":3341:3364   */\n      mload\n        /* \"#utility.yul\":3377:3436   */\n      tag_131\n        /* \"#utility.yul\":3430:3434   */\n      0x20\n        /* \"#utility.yul\":3425:3428   */\n      dup6\n        /* \"#utility.yul\":3421:3435   */\n      add\n        /* \"#utility.yul\":3407:3419   */\n      dup3\n        /* \"#utility.yul\":3377:3436   */\n      tag_132\n      jump\t// in\n    tag_131:\n        /* \"#utility.yul\":3285:3446   */\n      pop\n        /* \"#utility.yul\":3062:3453   */\n      pop\n      pop\n      pop\n      jump\t// out\n        /* \"#utility.yul\":3459:3561   */\n    tag_132:\n        /* \"#utility.yul\":3532:3554   */\n      tag_134\n        /* \"#utility.yul\":3548:3553   */\n      dup2\n        /* \"#utility.yul\":3532:3554   */\n      tag_135\n      jump\t// in\n    tag_134:\n        /* \"#utility.yul\":3527:3530   */\n      dup3\n        /* \"#utility.yul\":3520:3555   */\n      mstore\n        /* \"#utility.yul\":3510:3561   */\n      pop\n      pop\n      jump\t// out\n        /* \"#utility.yul\":3567:4044   */\n    tag_18:\n      0x00\n        /* \"#utility.yul\":3800:3802   */\n      0x20\n        /* \"#utility.yul\":3789:3798   */\n      dup3\n        /* \"#utility.yul\":3785:3803   */\n      add\n        /* \"#utility.yul\":3777:3803   */\n      swap1\n      pop\n        /* \"#utility.yul\":3849:3858   */\n      dup2\n        /* \"#utility.yul\":3843:3847   */\n      dup2\n        /* \"#utility.yul\":3839:3859   */\n      sub\n        /* \"#utility.yul\":3835:3836   */\n      0x00\n        /* \"#utility.yul\":3824:3833   */\n      dup4\n        /* \"#utility.yul\":3820:3837   */\n      add\n        /* \"#utility.yul\":3813:3860   */\n      mstore\n        /* \"#utility.yul\":3877:4037   */\n      tag_137\n        /* \"#utility.yul\":4032:4036   */\n      dup2\n        /* \"#utility.yul\":4023:4029   */\n      dup5\n        /* \"#utility.yul\":3877:4037   */\n      tag_105\n      jump\t// in\n    tag_137:\n        /* \"#utility.yul\":3869:4037   */\n      swap1\n      pop\n        /* \"#utility.yul\":3767:4044   */\n      swap3\n      swap2\n      pop\n      pop\n      jump\t// out\n        /* \"#utility.yul\":4050:4260   */\n    tag_13:\n      0x00\n        /* \"#utility.yul\":4175:4177   */\n      0x20\n        /* \"#utility.yul\":4164:4173   */\n      dup3\n        /* \"#utility.yul\":4160:4178   */\n      add\n        /* \"#utility.yul\":4152:4178   */\n      swap1\n      pop\n        /* \"#utility.yul\":4188:4253   */\n      tag_139\n        /* \"#utility.yul\":4250:4251   */\n      0x00\n        /* \"#utility.yul\":4239:4248   */\n      dup4\n        /* \"#utility.yul\":4235:4252   */\n      add\n        /* \"#utility.yul\":4226:4232   */\n      dup5\n        /* \"#utility.yul\":4188:4253   */\n      tag_119\n      jump\t// in\n    tag_139:\n        /* \"#utility.yul\":4142:4260   */\n      swap3\n      swap2\n      pop\n      pop\n      jump\t// out\n        /* \"#utility.yul\":4266:4685   */\n    tag_80:\n      0x00\n        /* \"#utility.yul\":4470:4472   */\n      0x20\n        /* \"#utility.yul\":4459:4468   */\n      dup3\n        /* \"#utility.yul\":4455:4473   */\n      add\n        /* \"#utility.yul\":4447:4473   */\n      swap1\n      pop\n        /* \"#utility.yul\":4519:4528   */\n      dup2\n        /* \"#utility.yul\":4513:4517   */\n      dup2\n        /* \"#utility.yul\":4509:4529   */\n      sub\n        /* \"#utility.yul\":4505:4506   */\n      0x00\n        /* \"#utility.yul\":4494:4503   */\n      dup4\n        /* \"#utility.yul\":4490:4507   */\n      add\n        /* \"#utility.yul\":4483:4530   */\n      mstore\n        /* \"#utility.yul\":4547:4678   */\n      tag_141\n        /* \"#utility.yul\":4673:4677   */\n      dup2\n        /* \"#utility.yul\":4547:4678   */\n      tag_123\n      jump\t// in\n    tag_141:\n        /* \"#utility.yul\":4539:4678   */\n      swap1\n      pop\n        /* \"#utility.yul\":4437:4685   */\n      swap2\n      swap1\n      pop\n      jump\t// out\n        /* \"#utility.yul\":4691:4849   */\n    tag_112:\n      0x00\n        /* \"#utility.yul\":4807:4810   */\n      dup2\n        /* \"#utility.yul\":4799:4810   */\n      swap1\n      pop\n        /* \"#utility.yul\":4837:4841   */\n      0x20\n        /* \"#utility.yul\":4832:4835   */\n      dup3\n        /* \"#utility.yul\":4828:4842   */\n      add\n        /* \"#utility.yul\":4820:4842   */\n      swap1\n      pop\n        /* \"#utility.yul\":4789:4849   */\n      swap2\n      swap1\n      pop\n      jump\t// out\n        /* \"#utility.yul\":4855:4995   */\n    tag_108:\n      0x00\n        /* \"#utility.yul\":4982:4987   */\n      dup2\n        /* \"#utility.yul\":4976:4988   */\n      mload\n        /* \"#utility.yul\":4966:4988   */\n      swap1\n      pop\n        /* \"#utility.yul\":4955:4995   */\n      swap2\n      swap1\n      pop\n      jump\t// out\n        /* \"#utility.yul\":5001:5140   */\n    tag_118:\n      0x00\n        /* \"#utility.yul\":5129:5133   */\n      0x20\n        /* \"#utility.yul\":5124:5127   */\n      dup3\n        /* \"#utility.yul\":5120:5134   */\n      add\n        /* \"#utility.yul\":5112:5134   */\n      swap1\n      pop\n        /* \"#utility.yul\":5102:5140   */\n      swap2\n      swap1\n      pop\n      jump\t// out\n        /* \"#utility.yul\":5146:5356   */\n    tag_110:\n      0x00\n        /* \"#utility.yul\":5305:5311   */\n      dup3\n        /* \"#utility.yul\":5300:5303   */\n      dup3\n        /* \"#utility.yul\":5293:5312   */\n      mstore\n        /* \"#utility.yul\":5345:5349   */\n      0x20\n        /* \"#utility.yul\":5340:5343   */\n      dup3\n        /* \"#utility.yul\":5336:5350   */\n      add\n        /* \"#utility.yul\":5321:5350   */\n      swap1\n      pop\n        /* \"#utility.yul\":5283:5356   */\n      swap3\n      swap2\n      pop\n      pop\n      jump\t// out\n        /* \"#utility.yul\":5362:5531   */\n    tag_126:\n      0x00\n        /* \"#utility.yul\":5480:5486   */\n      dup3\n        /* \"#utility.yul\":5475:5478   */\n      dup3\n        /* \"#utility.yul\":5468:5487   */\n      mstore\n        /* \"#utility.yul\":5520:5524   */\n      0x20\n        /* \"#utility.yul\":5515:5518   */\n      dup3\n        /* \"#utility.yul\":5511:5525   */\n      add\n        /* \"#utility.yul\":5496:5525   */\n      swap1\n      pop\n        /* \"#utility.yul\":5458:5531   */\n      swap3\n      swap2\n      pop\n      pop\n      jump\t// out\n        /* \"#utility.yul\":5537:5633   */\n    tag_104:\n      0x00\n        /* \"#utility.yul\":5603:5627   */\n      tag_148\n        /* \"#utility.yul\":5621:5626   */\n      dup3\n        /* \"#utility.yul\":5603:5627   */\n      tag_149\n      jump\t// in\n    tag_148:\n        /* \"#utility.yul\":5592:5627   */\n      swap1\n      pop\n        /* \"#utility.yul\":5582:5633   */\n      swap2\n      swap1\n      pop\n      jump\t// out\n        /* \"#utility.yul\":5639:5729   */\n    tag_122:\n      0x00\n        /* \"#utility.yul\":5716:5721   */\n      dup2\n        /* \"#utility.yul\":5709:5722   */\n      iszero\n        /* \"#utility.yul\":5702:5723   */\n      iszero\n        /* \"#utility.yul\":5691:5723   */\n      swap1\n      pop\n        /* \"#utility.yul\":5681:5729   */\n      swap2\n      swap1\n      pop\n      jump\t// out\n        /* \"#utility.yul\":5735:5861   */\n    tag_149:\n      0x00\n        /* \"#utility.yul\":5812:5854   */\n      0xffffffffffffffffffffffffffffffffffffffff\n        /* \"#utility.yul\":5805:5810   */\n      dup3\n        /* \"#utility.yul\":5801:5855   */\n      and\n        /* \"#utility.yul\":5790:5855   */\n      swap1\n      pop\n        /* \"#utility.yul\":5780:5861   */\n      swap2\n      swap1\n      pop\n      jump\t// out\n        /* \"#utility.yul\":5867:5944   */\n    tag_152:\n      0x00\n        /* \"#utility.yul\":5933:5938   */\n      dup2\n        /* \"#utility.yul\":5922:5938   */\n      swap1\n      pop\n        /* \"#utility.yul\":5912:5944   */\n      swap2\n      swap1\n      pop\n      jump\t// out\n        /* \"#utility.yul\":5950:6036   */\n    tag_135:\n      0x00\n        /* \"#utility.yul\":6025:6029   */\n      0xff\n        /* \"#utility.yul\":6018:6023   */\n      dup3\n        /* \"#utility.yul\":6014:6030   */\n      and\n        /* \"#utility.yul\":6003:6030   */\n      swap1\n      pop\n        /* \"#utility.yul\":5993:6036   */\n      swap2\n      swap1\n      pop\n      jump\t// out\n        /* \"#utility.yul\":6042:6275   */\n    tag_38:\n      0x00\n        /* \"#utility.yul\":6104:6128   */\n      tag_156\n        /* \"#utility.yul\":6122:6127   */\n      dup3\n        /* \"#utility.yul\":6104:6128   */\n      tag_152\n      jump\t// in\n    tag_156:\n        /* \"#utility.yul\":6095:6128   */\n      swap2\n      pop\n        /* \"#utility.yul\":6150:6216   */\n      0xffffffffffffffffffffffffffffffffffffffffffffffffffffffffffffffff\n        /* \"#utility.yul\":6143:6148   */\n      dup3\n        /* \"#utility.yul\":6140:6217   */\n      eq\n        /* \"#utility.yul\":6137:6139   */\n      iszero\n      tag_157\n      jumpi\n        /* \"#utility.yul\":6220:6238   */\n      tag_158\n      tag_159\n      jump\t// in\n    tag_158:\n        /* \"#utility.yul\":6137:6139   */\n    tag_157:\n        /* \"#utility.yul\":6267:6268   */\n      0x01\n        /* \"#utility.yul\":6260:6265   */\n      dup3\n        /* \"#utility.yul\":6256:6269   */\n      add\n        /* \"#utility.yul\":6249:6269   */\n      swap1\n      pop\n        /* \"#utility.yul\":6085:6275   */\n      swap2\n      swap1\n      pop\n      jump\t// out\n        /* \"#utility.yul\":6281:6461   */\n    tag_159:\n        /* \"#utility.yul\":6329:6406   */\n      0x4e487b7100000000000000000000000000000000000000000000000000000000\n        /* \"#utility.yul\":6326:6327   */\n      0x00\n        /* \"#utility.yul\":6319:6407   */\n      mstore\n        /* \"#utility.yul\":6426:6430   */\n      0x11\n        /* \"#utility.yul\":6423:6424   */\n      0x04\n        /* \"#utility.yul\":6416:6431   */\n      mstore\n        /* \"#utility.yul\":6450:6454   */\n      0x24\n        /* \"#utility.yul\":6447:6448   */\n      0x00\n        /* \"#utility.yul\":6440:6455   */\n      revert\n        /* \"#utility.yul\":6467:6632   */\n    tag_128:\n        /* \"#utility.yul\":6607:6624   */\n      0x556e6b6e6f776e2070726f6772616d0000000000000000000000000000000000\n        /* \"#utility.yul\":6603:6604   */\n      0x00\n        /* \"#utility.yul\":6595:6601   */\n      dup3\n        /* \"#utility.yul\":6591:6605   */\n      add\n        /* \"#utility.yul\":6584:6625   */\n      mstore\n        /* \"#utility.yul\":6573:6632   */\n      pop\n      jump\t// out\n        /* \"#utility.yul\":6638:6760   */\n    tag_85:\n        /* \"#utility.yul\":6711:6735   */\n      tag_163\n        /* \"#utility.yul\":6729:6734   */\n      dup2\n        /* \"#utility.yul\":6711:6735   */\n      tag_104\n      jump\t// in\n    tag_163:\n        /* \"#utility.yul\":6704:6709   */\n      dup2\n        /* \"#utility.yul\":6701:6736   */\n      eq\n        /* \"#utility.yul\":6691:6693   */\n      tag_164\n      jumpi\n        /* \"#utility.yul\":6750:6751   */\n      0x00\n        /* \"#utility.yul\":6747:6748   */\n      dup1\n        /* \"#utility.yul\":6740:6752   */\n      revert\n        /* \"#utility.yul\":6691:6693   */\n    tag_164:\n        /* \"#utility.yul\":6681:6760   */\n      pop\n      jump\t// out\n        /* \"#utility.yul\":6766:6884   */\n    tag_89:\n        /* \"#utility.yul\":6837:6859   */\n      tag_166\n        /* \"#utility.yul\":6853:6858   */\n      dup2\n        /* \"#utility.yul\":6837:6859   */\n      tag_135\n      jump\t// in\n    tag_166:\n        /* \"#utility.yul\":6830:6835   */\n      dup2\n        /* \"#utility.yul\":6827:6860   */\n      eq\n        /* \"#utility.yul\":6817:6819   */\n      tag_167\n      jumpi\n        /* \"#utility.yul\":6874:6875   */\n      0x00\n        /* \"#utility.yul\":6871:6872   */\n      dup1\n        /* \"#utility.yul\":6864:6876   */\n      revert\n        /* \"#utility.yul\":6817:6819   */\n    tag_167:\n        /* \"#utility.yul\":6807:6884   */\n      pop\n      jump\t// out\n\n    auxdata: 0xa264697066735822122009979884eb4f3625b2748d04fa44fe15e897514a68d579b6520f813cb0d3a8e264736f6c63430008010033\n}\n",
				"bytecode": {
					"linkReferences": {},
					"object": "608060405234801561001057600080fd5b50610c25806100206000396000f3fe608060405234801561001057600080fd5b50600436106100575760003560e01c806302e558971461005c5780631bbdec161461008c578063af066a00146100bc578063bd4acf03146100ec578063da4d934a14610108575b600080fd5b610076600480360381019061007191906108ca565b610124565b6040516100839190610a46565b60405180910390f35b6100a660048036038101906100a191906108ca565b6101f5565b6040516100b39190610a24565b60405180910390f35b6100d660048036038101906100d191906108ca565b610562565b6040516100e39190610a24565b60405180910390f35b610106600480360381019061010191906108ca565b610719565b005b610122600480360381019061011d91906108f3565b61078d565b005b6000806000905060005b6001805490508110156101eb578373ffffffffffffffffffffffffffffffffffffffff166001828154811061018c577f4e487b7100000000000000000000000000000000000000000000000000000000600052603260045260246000fd5b9060005260206000200160009054906101000a900473ffffffffffffffffffffffffffffffffffffffff1673ffffffffffffffffffffffffffffffffffffffff1614156101d857600191505b80806101e390610b20565b91505061012e565b5080915050919050565b60606000805b60018054905081101561032e57600060018281548110610244577f4e487b7100000000000000000000000000000000000000000000000000000000600052603260045260246000fd5b9060005260206000200160009054906101000a900473ffffffffffffffffffffffffffffffffffffffff16905060008060008773ffffffffffffffffffffffffffffffffffffffff1673ffffffffffffffffffffffffffffffffffffffff16815260200190815260200160002060008373ffffffffffffffffffffffffffffffffffffffff1673ffffffffffffffffffffffffffffffffffffffff16815260200190815260200160002060009054906101000a900460ff16905060008160ff16111561031957838061031590610b20565b9450505b5050808061032690610b20565b9150506101fb565b5060008167ffffffffffffffff811115610371577f4e487b7100000000000000000000000000000000000000000000000000000000600052604160045260246000fd5b6040519080825280602002602001820160405280156103aa57816020015b61039761086d565b81526020019060019003908161038f5790505b5090506000805b600180549050811015610556576000600182815481106103fa577f4e487b7100000000000000000000000000000000000000000000000000000000600052603260045260246000fd5b9060005260206000200160009054906101000a900473ffffffffffffffffffffffffffffffffffffffff16905060008060008973ffffffffffffffffffffffffffffffffffffffff1673ffffffffffffffffffffffffffffffffffffffff16815260200190815260200160002060008373ffffffffffffffffffffffffffffffffffffffff1673ffffffffffffffffffffffffffffffffffffffff16815260200190815260200160002060009054906101000a900460ff16905060008160ff1611156105415760405180604001604052808373ffffffffffffffffffffffffffffffffffffffff1681526020018260ff16815250858581518110610527577f4e487b7100000000000000000000000000000000000000000000000000000000600052603260045260246000fd5b6020026020010181905250838061053d90610b20565b9450505b5050808061054e90610b20565b9150506103b1565b50819350505050919050565b6060806000805b60018054905081101561070e576000600182815481106105b2577f4e487b7100000000000000000000000000000000000000000000000000000000600052603260045260246000fd5b9060005260206000200160009054906101000a900473ffffffffffffffffffffffffffffffffffffffff16905060008060008873ffffffffffffffffffffffffffffffffffffffff1673ffffffffffffffffffffffffffffffffffffffff16815260200190815260200160002060008373ffffffffffffffffffffffffffffffffffffffff1673ffffffffffffffffffffffffffffffffffffffff16815260200190815260200160002060009054906101000a900460ff16905060008160ff1611156106f95760405180604001604052808373ffffffffffffffffffffffffffffffffffffffff1681526020018260ff168152508585815181106106df577f4e487b7100000000000000000000000000000000000000000000000000000000600052603260045260246000fd5b602002602001018190525083806106f590610b20565b9450505b5050808061070690610b20565b915050610569565b508192505050919050565b61072281610124565b61078a576001819080600181540180825580915050600190039060005260206000200160009091909190916101000a81548173ffffffffffffffffffffffffffffffffffffffff021916908373ffffffffffffffffffffffffffffffffffffffff1602179055505b50565b61079682610124565b6107d5576040517f08c379a00000000000000000000000000000000000000000000000000000000081526004016107cc90610a61565b60405180910390fd5b806000803373ffffffffffffffffffffffffffffffffffffffff1673ffffffffffffffffffffffffffffffffffffffff16815260200190815260200160002060008473ffffffffffffffffffffffffffffffffffffffff1673ffffffffffffffffffffffffffffffffffffffff16815260200190815260200160002060006101000a81548160ff021916908360ff1602179055505050565b6040518060400160405280600073ffffffffffffffffffffffffffffffffffffffff168152602001600060ff1681525090565b6000813590506108af81610bc1565b92915050565b6000813590506108c481610bd8565b92915050565b6000602082840312156108dc57600080fd5b60006108ea848285016108a0565b91505092915050565b6000806040838503121561090657600080fd5b6000610914858286016108a0565b9250506020610925858286016108b5565b9150509250929050565b600061093b83836109e6565b60408301905092915050565b61095081610acb565b82525050565b600061096182610a91565b61096b8185610aa9565b935061097683610a81565b8060005b838110156109a757815161098e888261092f565b975061099983610a9c565b92505060018101905061097a565b5085935050505092915050565b6109bd81610add565b82525050565b60006109d0600f83610aba565b91506109db82610b98565b602082019050919050565b6040820160008201516109fc6000850182610947565b506020820151610a0f6020850182610a15565b50505050565b610a1e81610b13565b82525050565b60006020820190508181036000830152610a3e8184610956565b905092915050565b6000602082019050610a5b60008301846109b4565b92915050565b60006020820190508181036000830152610a7a816109c3565b9050919050565b6000819050602082019050919050565b600081519050919050565b6000602082019050919050565b600082825260208201905092915050565b600082825260208201905092915050565b6000610ad682610ae9565b9050919050565b60008115159050919050565b600073ffffffffffffffffffffffffffffffffffffffff82169050919050565b6000819050919050565b600060ff82169050919050565b6000610b2b82610b09565b91507fffffffffffffffffffffffffffffffffffffffffffffffffffffffffffffffff821415610b5e57610b5d610b69565b5b600182019050919050565b7f4e487b7100000000000000000000000000000000000000000000000000000000600052601160045260246000fd5b7f556e6b6e6f776e2070726f6772616d0000000000000000000000000000000000600082015250565b610bca81610acb565b8114610bd557600080fd5b50565b610be181610b13565b8114610bec57600080fd5b5056fea264697066735822122009979884eb4f3625b2748d04fa44fe15e897514a68d579b6520f813cb0d3a8e264736f6c63430008010033",
					"opcodes": "PUSH1 0x80 PUSH1 0x40 MSTORE CALLVALUE DUP1 ISZERO PUSH2 0x10 JUMPI PUSH1 0x0 DUP1 REVERT JUMPDEST POP PUSH2 0xC25 DUP1 PUSH2 0x20 PUSH1 0x0 CODECOPY PUSH1 0x0 RETURN INVALID PUSH1 0x80 PUSH1 0x40 MSTORE CALLVALUE DUP1 ISZERO PUSH2 0x10 JUMPI PUSH1 0x0 DUP1 REVERT JUMPDEST POP PUSH1 0x4 CALLDATASIZE LT PUSH2 0x57 JUMPI PUSH1 0x0 CALLDATALOAD PUSH1 0xE0 SHR DUP1 PUSH4 0x2E55897 EQ PUSH2 0x5C JUMPI DUP1 PUSH4 0x1BBDEC16 EQ PUSH2 0x8C JUMPI DUP1 PUSH4 0xAF066A00 EQ PUSH2 0xBC JUMPI DUP1 PUSH4 0xBD4ACF03 EQ PUSH2 0xEC JUMPI DUP1 PUSH4 0xDA4D934A EQ PUSH2 0x108 JUMPI JUMPDEST PUSH1 0x0 DUP1 REVERT JUMPDEST PUSH2 0x76 PUSH1 0x4 DUP1 CALLDATASIZE SUB DUP2 ADD SWAP1 PUSH2 0x71 SWAP2 SWAP1 PUSH2 0x8CA JUMP JUMPDEST PUSH2 0x124 JUMP JUMPDEST PUSH1 0x40 MLOAD PUSH2 0x83 SWAP2 SWAP1 PUSH2 0xA46 JUMP JUMPDEST PUSH1 0x40 MLOAD DUP1 SWAP2 SUB SWAP1 RETURN JUMPDEST PUSH2 0xA6 PUSH1 0x4 DUP1 CALLDATASIZE SUB DUP2 ADD SWAP1 PUSH2 0xA1 SWAP2 SWAP1 PUSH2 0x8CA JUMP JUMPDEST PUSH2 0x1F5 JUMP JUMPDEST PUSH1 0x40 MLOAD PUSH2 0xB3 SWAP2 SWAP1 PUSH2 0xA24 JUMP JUMPDEST PUSH1 0x40 MLOAD DUP1 SWAP2 SUB SWAP1 RETURN JUMPDEST PUSH2 0xD6 PUSH1 0x4 DUP1 CALLDATASIZE SUB DUP2 ADD SWAP1 PUSH2 0xD1 SWAP2 SWAP1 PUSH2 0x8CA JUMP JUMPDEST PUSH2 0x562 JUMP JUMPDEST PUSH1 0x40 MLOAD PUSH2 0xE3 SWAP2 SWAP1 PUSH2 0xA24 JUMP JUMPDEST PUSH1 0x40 MLOAD DUP1 SWAP2 SUB SWAP1 RETURN JUMPDEST PUSH2 0x106 PUSH1 0x4 DUP1 CALLDATASIZE SUB DUP2 ADD SWAP1 PUSH2 0x101 SWAP2 SWAP1 PUSH2 0x8CA JUMP JUMPDEST PUSH2 0x719 JUMP JUMPDEST STOP JUMPDEST PUSH2 0x122 PUSH1 0x4 DUP1 CALLDATASIZE SUB DUP2 ADD SWAP1 PUSH2 0x11D SWAP2 SWAP1 PUSH2 0x8F3 JUMP JUMPDEST PUSH2 0x78D JUMP JUMPDEST STOP JUMPDEST PUSH1 0x0 DUP1 PUSH1 0x0 SWAP1 POP PUSH1 0x0 JUMPDEST PUSH1 0x1 DUP1 SLOAD SWAP1 POP DUP2 LT ISZERO PUSH2 0x1EB JUMPI DUP4 PUSH20 0xFFFFFFFFFFFFFFFFFFFFFFFFFFFFFFFFFFFFFFFF AND PUSH1 0x1 DUP3 DUP2 SLOAD DUP2 LT PUSH2 0x18C JUMPI PUSH32 0x4E487B7100000000000000000000000000000000000000000000000000000000 PUSH1 0x0 MSTORE PUSH1 0x32 PUSH1 0x4 MSTORE PUSH1 0x24 PUSH1 0x0 REVERT JUMPDEST SWAP1 PUSH1 0x0 MSTORE PUSH1 0x20 PUSH1 0x0 KECCAK256 ADD PUSH1 0x0 SWAP1 SLOAD SWAP1 PUSH2 0x100 EXP SWAP1 DIV PUSH20 0xFFFFFFFFFFFFFFFFFFFFFFFFFFFFFFFFFFFFFFFF AND PUSH20 0xFFFFFFFFFFFFFFFFFFFFFFFFFFFFFFFFFFFFFFFF AND EQ ISZERO PUSH2 0x1D8 JUMPI PUSH1 0x1 SWAP2 POP JUMPDEST DUP1 DUP1 PUSH2 0x1E3 SWAP1 PUSH2 0xB20 JUMP JUMPDEST SWAP2 POP POP PUSH2 0x12E JUMP JUMPDEST POP DUP1 SWAP2 POP POP SWAP2 SWAP1 POP JUMP JUMPDEST PUSH1 0x60 PUSH1 0x0 DUP1 JUMPDEST PUSH1 0x1 DUP1 SLOAD SWAP1 POP DUP2 LT ISZERO PUSH2 0x32E JUMPI PUSH1 0x0 PUSH1 0x1 DUP3 DUP2 SLOAD DUP2 LT PUSH2 0x244 JUMPI PUSH32 0x4E487B7100000000000000000000000000000000000000000000000000000000 PUSH1 0x0 MSTORE PUSH1 0x32 PUSH1 0x4 MSTORE PUSH1 0x24 PUSH1 0x0 REVERT JUMPDEST SWAP1 PUSH1 0x0 MSTORE PUSH1 0x20 PUSH1 0x0 KECCAK256 ADD PUSH1 0x0 SWAP1 SLOAD SWAP1 PUSH2 0x100 EXP SWAP1 DIV PUSH20 0xFFFFFFFFFFFFFFFFFFFFFFFFFFFFFFFFFFFFFFFF AND SWAP1 POP PUSH1 0x0 DUP1 PUSH1 0x0 DUP8 PUSH20 0xFFFFFFFFFFFFFFFFFFFFFFFFFFFFFFFFFFFFFFFF AND PUSH20 0xFFFFFFFFFFFFFFFFFFFFFFFFFFFFFFFFFFFFFFFF AND DUP2 MSTORE PUSH1 0x20 ADD SWAP1 DUP2 MSTORE PUSH1 0x20 ADD PUSH1 0x0 KECCAK256 PUSH1 0x0 DUP4 PUSH20 0xFFFFFFFFFFFFFFFFFFFFFFFFFFFFFFFFFFFFFFFF AND PUSH20 0xFFFFFFFFFFFFFFFFFFFFFFFFFFFFFFFFFFFFFFFF AND DUP2 MSTORE PUSH1 0x20 ADD SWAP1 DUP2 MSTORE PUSH1 0x20 ADD PUSH1 0x0 KECCAK256 PUSH1 0x0 SWAP1 SLOAD SWAP1 PUSH2 0x100 EXP SWAP1 DIV PUSH1 0xFF AND SWAP1 POP PUSH1 0x0 DUP2 PUSH1 0xFF AND GT ISZERO PUSH2 0x319 JUMPI DUP4 DUP1 PUSH2 0x315 SWAP1 PUSH2 0xB20 JUMP JUMPDEST SWAP5 POP POP JUMPDEST POP POP DUP1 DUP1 PUSH2 0x326 SWAP1 PUSH2 0xB20 JUMP JUMPDEST SWAP2 POP POP PUSH2 0x1FB JUMP JUMPDEST POP PUSH1 0x0 DUP2 PUSH8 0xFFFFFFFFFFFFFFFF DUP2 GT ISZERO PUSH2 0x371 JUMPI PUSH32 0x4E487B7100000000000000000000000000000000000000000000000000000000 PUSH1 0x0 MSTORE PUSH1 0x41 PUSH1 0x4 MSTORE PUSH1 0x24 PUSH1 0x0 REVERT JUMPDEST PUSH1 0x40 MLOAD SWAP1 DUP1 DUP3 MSTORE DUP1 PUSH1 0x20 MUL PUSH1 0x20 ADD DUP3 ADD PUSH1 0x40 MSTORE DUP1 ISZERO PUSH2 0x3AA JUMPI DUP2 PUSH1 0x20 ADD JUMPDEST PUSH2 0x397 PUSH2 0x86D JUMP JUMPDEST DUP2 MSTORE PUSH1 0x20 ADD SWAP1 PUSH1 0x1 SWAP1 SUB SWAP1 DUP2 PUSH2 0x38F JUMPI SWAP1 POP JUMPDEST POP SWAP1 POP PUSH1 0x0 DUP1 JUMPDEST PUSH1 0x1 DUP1 SLOAD SWAP1 POP DUP2 LT ISZERO PUSH2 0x556 JUMPI PUSH1 0x0 PUSH1 0x1 DUP3 DUP2 SLOAD DUP2 LT PUSH2 0x3FA JUMPI PUSH32 0x4E487B7100000000000000000000000000000000000000000000000000000000 PUSH1 0x0 MSTORE PUSH1 0x32 PUSH1 0x4 MSTORE PUSH1 0x24 PUSH1 0x0 REVERT JUMPDEST SWAP1 PUSH1 0x0 MSTORE PUSH1 0x20 PUSH1 0x0 KECCAK256 ADD PUSH1 0x0 SWAP1 SLOAD SWAP1 PUSH2 0x100 EXP SWAP1 DIV PUSH20 0xFFFFFFFFFFFFFFFFFFFFFFFFFFFFFFFFFFFFFFFF AND SWAP1 POP PUSH1 0x0 DUP1 PUSH1 0x0 DUP10 PUSH20 0xFFFFFFFFFFFFFFFFFFFFFFFFFFFFFFFFFFFFFFFF AND PUSH20 0xFFFFFFFFFFFFFFFFFFFFFFFFFFFFFFFFFFFFFFFF AND DUP2 MSTORE PUSH1 0x20 ADD SWAP1 DUP2 MSTORE PUSH1 0x20 ADD PUSH1 0x0 KECCAK256 PUSH1 0x0 DUP4 PUSH20 0xFFFFFFFFFFFFFFFFFFFFFFFFFFFFFFFFFFFFFFFF AND PUSH20 0xFFFFFFFFFFFFFFFFFFFFFFFFFFFFFFFFFFFFFFFF AND DUP2 MSTORE PUSH1 0x20 ADD SWAP1 DUP2 MSTORE PUSH1 0x20 ADD PUSH1 0x0 KECCAK256 PUSH1 0x0 SWAP1 SLOAD SWAP1 PUSH2 0x100 EXP SWAP1 DIV PUSH1 0xFF AND SWAP1 POP PUSH1 0x0 DUP2 PUSH1 0xFF AND GT ISZERO PUSH2 0x541 JUMPI PUSH1 0x40 MLOAD DUP1 PUSH1 0x40 ADD PUSH1 0x40 MSTORE DUP1 DUP4 PUSH20 0xFFFFFFFFFFFFFFFFFFFFFFFFFFFFFFFFFFFFFFFF AND DUP2 MSTORE PUSH1 0x20 ADD DUP3 PUSH1 0xFF AND DUP2 MSTORE POP DUP6 DUP6 DUP2 MLOAD DUP2 LT PUSH2 0x527 JUMPI PUSH32 0x4E487B7100000000000000000000000000000000000000000000000000000000 PUSH1 0x0 MSTORE PUSH1 0x32 PUSH1 0x4 MSTORE PUSH1 0x24 PUSH1 0x0 REVERT JUMPDEST PUSH1 0x20 MUL PUSH1 0x20 ADD ADD DUP2 SWAP1 MSTORE POP DUP4 DUP1 PUSH2 0x53D SWAP1 PUSH2 0xB20 JUMP JUMPDEST SWAP5 POP POP JUMPDEST POP POP DUP1 DUP1 PUSH2 0x54E SWAP1 PUSH2 0xB20 JUMP JUMPDEST SWAP2 POP POP PUSH2 0x3B1 JUMP JUMPDEST POP DUP2 SWAP4 POP POP POP POP SWAP2 SWAP1 POP JUMP JUMPDEST PUSH1 0x60 DUP1 PUSH1 0x0 DUP1 JUMPDEST PUSH1 0x1 DUP1 SLOAD SWAP1 POP DUP2 LT ISZERO PUSH2 0x70E JUMPI PUSH1 0x0 PUSH1 0x1 DUP3 DUP2 SLOAD DUP2 LT PUSH2 0x5B2 JUMPI PUSH32 0x4E487B7100000000000000000000000000000000000000000000000000000000 PUSH1 0x0 MSTORE PUSH1 0x32 PUSH1 0x4 MSTORE PUSH1 0x24 PUSH1 0x0 REVERT JUMPDEST SWAP1 PUSH1 0x0 MSTORE PUSH1 0x20 PUSH1 0x0 KECCAK256 ADD PUSH1 0x0 SWAP1 SLOAD SWAP1 PUSH2 0x100 EXP SWAP1 DIV PUSH20 0xFFFFFFFFFFFFFFFFFFFFFFFFFFFFFFFFFFFFFFFF AND SWAP1 POP PUSH1 0x0 DUP1 PUSH1 0x0 DUP9 PUSH20 0xFFFFFFFFFFFFFFFFFFFFFFFFFFFFFFFFFFFFFFFF AND PUSH20 0xFFFFFFFFFFFFFFFFFFFFFFFFFFFFFFFFFFFFFFFF AND DUP2 MSTORE PUSH1 0x20 ADD SWAP1 DUP2 MSTORE PUSH1 0x20 ADD PUSH1 0x0 KECCAK256 PUSH1 0x0 DUP4 PUSH20 0xFFFFFFFFFFFFFFFFFFFFFFFFFFFFFFFFFFFFFFFF AND PUSH20 0xFFFFFFFFFFFFFFFFFFFFFFFFFFFFFFFFFFFFFFFF AND DUP2 MSTORE PUSH1 0x20 ADD SWAP1 DUP2 MSTORE PUSH1 0x20 ADD PUSH1 0x0 KECCAK256 PUSH1 0x0 SWAP1 SLOAD SWAP1 PUSH2 0x100 EXP SWAP1 DIV PUSH1 0xFF AND SWAP1 POP PUSH1 0x0 DUP2 PUSH1 0xFF AND GT ISZERO PUSH2 0x6F9 JUMPI PUSH1 0x40 MLOAD DUP1 PUSH1 0x40 ADD PUSH1 0x40 MSTORE DUP1 DUP4 PUSH20 0xFFFFFFFFFFFFFFFFFFFFFFFFFFFFFFFFFFFFFFFF AND DUP2 MSTORE PUSH1 0x20 ADD DUP3 PUSH1 0xFF AND DUP2 MSTORE POP DUP6 DUP6 DUP2 MLOAD DUP2 LT PUSH2 0x6DF JUMPI PUSH32 0x4E487B7100000000000000000000000000000000000000000000000000000000 PUSH1 0x0 MSTORE PUSH1 0x32 PUSH1 0x4 MSTORE PUSH1 0x24 PUSH1 0x0 REVERT JUMPDEST PUSH1 0x20 MUL PUSH1 0x20 ADD ADD DUP2 SWAP1 MSTORE POP DUP4 DUP1 PUSH2 0x6F5 SWAP1 PUSH2 0xB20 JUMP JUMPDEST SWAP5 POP POP JUMPDEST POP POP DUP1 DUP1 PUSH2 0x706 SWAP1 PUSH2 0xB20 JUMP JUMPDEST SWAP2 POP POP PUSH2 0x569 JUMP JUMPDEST POP DUP2 SWAP3 POP POP POP SWAP2 SWAP1 POP JUMP JUMPDEST PUSH2 0x722 DUP2 PUSH2 0x124 JUMP JUMPDEST PUSH2 0x78A JUMPI PUSH1 0x1 DUP2 SWAP1 DUP1 PUSH1 0x1 DUP2 SLOAD ADD DUP1 DUP3 SSTORE DUP1 SWAP2 POP POP PUSH1 0x1 SWAP1 SUB SWAP1 PUSH1 0x0 MSTORE PUSH1 0x20 PUSH1 0x0 KECCAK256 ADD PUSH1 0x0 SWAP1 SWAP2 SWAP1 SWAP2 SWAP1 SWAP2 PUSH2 0x100 EXP DUP2 SLOAD DUP2 PUSH20 0xFFFFFFFFFFFFFFFFFFFFFFFFFFFFFFFFFFFFFFFF MUL NOT AND SWAP1 DUP4 PUSH20 0xFFFFFFFFFFFFFFFFFFFFFFFFFFFFFFFFFFFFFFFF AND MUL OR SWAP1 SSTORE POP JUMPDEST POP JUMP JUMPDEST PUSH2 0x796 DUP3 PUSH2 0x124 JUMP JUMPDEST PUSH2 0x7D5 JUMPI PUSH1 0x40 MLOAD PUSH32 0x8C379A000000000000000000000000000000000000000000000000000000000 DUP2 MSTORE PUSH1 0x4 ADD PUSH2 0x7CC SWAP1 PUSH2 0xA61 JUMP JUMPDEST PUSH1 0x40 MLOAD DUP1 SWAP2 SUB SWAP1 REVERT JUMPDEST DUP1 PUSH1 0x0 DUP1 CALLER PUSH20 0xFFFFFFFFFFFFFFFFFFFFFFFFFFFFFFFFFFFFFFFF AND PUSH20 0xFFFFFFFFFFFFFFFFFFFFFFFFFFFFFFFFFFFFFFFF AND DUP2 MSTORE PUSH1 0x20 ADD SWAP1 DUP2 MSTORE PUSH1 0x20 ADD PUSH1 0x0 KECCAK256 PUSH1 0x0 DUP5 PUSH20 0xFFFFFFFFFFFFFFFFFFFFFFFFFFFFFFFFFFFFFFFF AND PUSH20 0xFFFFFFFFFFFFFFFFFFFFFFFFFFFFFFFFFFFFFFFF AND DUP2 MSTORE PUSH1 0x20 ADD SWAP1 DUP2 MSTORE PUSH1 0x20 ADD PUSH1 0x0 KECCAK256 PUSH1 0x0 PUSH2 0x100 EXP DUP2 SLOAD DUP2 PUSH1 0xFF MUL NOT AND SWAP1 DUP4 PUSH1 0xFF AND MUL OR SWAP1 SSTORE POP POP POP JUMP JUMPDEST PUSH1 0x40 MLOAD DUP1 PUSH1 0x40 ADD PUSH1 0x40 MSTORE DUP1 PUSH1 0x0 PUSH20 0xFFFFFFFFFFFFFFFFFFFFFFFFFFFFFFFFFFFFFFFF AND DUP2 MSTORE PUSH1 0x20 ADD PUSH1 0x0 PUSH1 0xFF AND DUP2 MSTORE POP SWAP1 JUMP JUMPDEST PUSH1 0x0 DUP2 CALLDATALOAD SWAP1 POP PUSH2 0x8AF DUP2 PUSH2 0xBC1 JUMP JUMPDEST SWAP3 SWAP2 POP POP JUMP JUMPDEST PUSH1 0x0 DUP2 CALLDATALOAD SWAP1 POP PUSH2 0x8C4 DUP2 PUSH2 0xBD8 JUMP JUMPDEST SWAP3 SWAP2 POP POP JUMP JUMPDEST PUSH1 0x0 PUSH1 0x20 DUP3 DUP5 SUB SLT ISZERO PUSH2 0x8DC JUMPI PUSH1 0x0 DUP1 REVERT JUMPDEST PUSH1 0x0 PUSH2 0x8EA DUP5 DUP3 DUP6 ADD PUSH2 0x8A0 JUMP JUMPDEST SWAP2 POP POP SWAP3 SWAP2 POP POP JUMP JUMPDEST PUSH1 0x0 DUP1 PUSH1 0x40 DUP4 DUP6 SUB SLT ISZERO PUSH2 0x906 JUMPI PUSH1 0x0 DUP1 REVERT JUMPDEST PUSH1 0x0 PUSH2 0x914 DUP6 DUP3 DUP7 ADD PUSH2 0x8A0 JUMP JUMPDEST SWAP3 POP POP PUSH1 0x20 PUSH2 0x925 DUP6 DUP3 DUP7 ADD PUSH2 0x8B5 JUMP JUMPDEST SWAP2 POP POP SWAP3 POP SWAP3 SWAP1 POP JUMP JUMPDEST PUSH1 0x0 PUSH2 0x93B DUP4 DUP4 PUSH2 0x9E6 JUMP JUMPDEST PUSH1 0x40 DUP4 ADD SWAP1 POP SWAP3 SWAP2 POP POP JUMP JUMPDEST PUSH2 0x950 DUP2 PUSH2 0xACB JUMP JUMPDEST DUP3 MSTORE POP POP JUMP JUMPDEST PUSH1 0x0 PUSH2 0x961 DUP3 PUSH2 0xA91 JUMP JUMPDEST PUSH2 0x96B DUP2 DUP6 PUSH2 0xAA9 JUMP JUMPDEST SWAP4 POP PUSH2 0x976 DUP4 PUSH2 0xA81 JUMP JUMPDEST DUP1 PUSH1 0x0 JUMPDEST DUP4 DUP2 LT ISZERO PUSH2 0x9A7 JUMPI DUP2 MLOAD PUSH2 0x98E DUP9 DUP3 PUSH2 0x92F JUMP JUMPDEST SWAP8 POP PUSH2 0x999 DUP4 PUSH2 0xA9C JUMP JUMPDEST SWAP3 POP POP PUSH1 0x1 DUP2 ADD SWAP1 POP PUSH2 0x97A JUMP JUMPDEST POP DUP6 SWAP4 POP POP POP POP SWAP3 SWAP2 POP POP JUMP JUMPDEST PUSH2 0x9BD DUP2 PUSH2 0xADD JUMP JUMPDEST DUP3 MSTORE POP POP JUMP JUMPDEST PUSH1 0x0 PUSH2 0x9D0 PUSH1 0xF DUP4 PUSH2 0xABA JUMP JUMPDEST SWAP2 POP PUSH2 0x9DB DUP3 PUSH2 0xB98 JUMP JUMPDEST PUSH1 0x20 DUP3 ADD SWAP1 POP SWAP2 SWAP1 POP JUMP JUMPDEST PUSH1 0x40 DUP3 ADD PUSH1 0x0 DUP3 ADD MLOAD PUSH2 0x9FC PUSH1 0x0 DUP6 ADD DUP3 PUSH2 0x947 JUMP JUMPDEST POP PUSH1 0x20 DUP3 ADD MLOAD PUSH2 0xA0F PUSH1 0x20 DUP6 ADD DUP3 PUSH2 0xA15 JUMP JUMPDEST POP POP POP POP JUMP JUMPDEST PUSH2 0xA1E DUP2 PUSH2 0xB13 JUMP JUMPDEST DUP3 MSTORE POP POP JUMP JUMPDEST PUSH1 0x0 PUSH1 0x20 DUP3 ADD SWAP1 POP DUP2 DUP2 SUB PUSH1 0x0 DUP4 ADD MSTORE PUSH2 0xA3E DUP2 DUP5 PUSH2 0x956 JUMP JUMPDEST SWAP1 POP SWAP3 SWAP2 POP POP JUMP JUMPDEST PUSH1 0x0 PUSH1 0x20 DUP3 ADD SWAP1 POP PUSH2 0xA5B PUSH1 0x0 DUP4 ADD DUP5 PUSH2 0x9B4 JUMP JUMPDEST SWAP3 SWAP2 POP POP JUMP JUMPDEST PUSH1 0x0 PUSH1 0x20 DUP3 ADD SWAP1 POP DUP2 DUP2 SUB PUSH1 0x0 DUP4 ADD MSTORE PUSH2 0xA7A DUP2 PUSH2 0x9C3 JUMP JUMPDEST SWAP1 POP SWAP2 SWAP1 POP JUMP JUMPDEST PUSH1 0x0 DUP2 SWAP1 POP PUSH1 0x20 DUP3 ADD SWAP1 POP SWAP2 SWAP1 POP JUMP JUMPDEST PUSH1 0x0 DUP2 MLOAD SWAP1 POP SWAP2 SWAP1 POP JUMP JUMPDEST PUSH1 0x0 PUSH1 0x20 DUP3 ADD SWAP1 POP SWAP2 SWAP1 POP JUMP JUMPDEST PUSH1 0x0 DUP3 DUP3 MSTORE PUSH1 0x20 DUP3 ADD SWAP1 POP SWAP3 SWAP2 POP POP JUMP JUMPDEST PUSH1 0x0 DUP3 DUP3 MSTORE PUSH1 0x20 DUP3 ADD SWAP1 POP SWAP3 SWAP2 POP POP JUMP JUMPDEST PUSH1 0x0 PUSH2 0xAD6 DUP3 PUSH2 0xAE9 JUMP JUMPDEST SWAP1 POP SWAP2 SWAP1 POP JUMP JUMPDEST PUSH1 0x0 DUP2 ISZERO ISZERO SWAP1 POP SWAP2 SWAP1 POP JUMP JUMPDEST PUSH1 0x0 PUSH20 0xFFFFFFFFFFFFFFFFFFFFFFFFFFFFFFFFFFFFFFFF DUP3 AND SWAP1 POP SWAP2 SWAP1 POP JUMP JUMPDEST PUSH1 0x0 DUP2 SWAP1 POP SWAP2 SWAP1 POP JUMP JUMPDEST PUSH1 0x0 PUSH1 0xFF DUP3 AND SWAP1 POP SWAP2 SWAP1 POP JUMP JUMPDEST PUSH1 0x0 PUSH2 0xB2B DUP3 PUSH2 0xB09 JUMP JUMPDEST SWAP2 POP PUSH32 0xFFFFFFFFFFFFFFFFFFFFFFFFFFFFFFFFFFFFFFFFFFFFFFFFFFFFFFFFFFFFFFFF DUP3 EQ ISZERO PUSH2 0xB5E JUMPI PUSH2 0xB5D PUSH2 0xB69 JUMP JUMPDEST JUMPDEST PUSH1 0x1 DUP3 ADD SWAP1 POP SWAP2 SWAP1 POP JUMP JUMPDEST PUSH32 0x4E487B7100000000000000000000000000000000000000000000000000000000 PUSH1 0x0 MSTORE PUSH1 0x11 PUSH1 0x4 MSTORE PUSH1 0x24 PUSH1 0x0 REVERT JUMPDEST PUSH32 0x556E6B6E6F776E2070726F6772616D0000000000000000000000000000000000 PUSH1 0x0 DUP3 ADD MSTORE POP JUMP JUMPDEST PUSH2 0xBCA DUP2 PUSH2 0xACB JUMP JUMPDEST DUP2 EQ PUSH2 0xBD5 JUMPI PUSH1 0x0 DUP1 REVERT JUMPDEST POP JUMP JUMPDEST PUSH2 0xBE1 DUP2 PUSH2 0xB13 JUMP JUMPDEST DUP2 EQ PUSH2 0xBEC JUMPI PUSH1 0x0 DUP1 REVERT JUMPDEST POP JUMP INVALID LOG2 PUSH5 0x6970667358 0x22 SLT KECCAK256 MULMOD SWAP8 SWAP9 DUP5 0xEB 0x4F CALLDATASIZE 0x25 0xB2 PUSH21 0x8D04FA44FE15E897514A68D579B6520F813CB0D3A8 0xE2 PUSH5 0x736F6C6343 STOP ADDMOD ADD STOP CALLER "
				},
				"gasEstimates": {
					"creation": {
						"codeDepositCost": "621800",
						"executionCost": "657",
						"totalCost": "622457"
					},
					"external": {
						"addProgram(address)": "infinite",
						"getAccessLevel_CORRECT(address)": "infinite",
						"getAccessLevel_WRONG(address)": "infinite",
						"programExists(address)": "infinite",
						"setAccessLevel(address,uint8)": "infinite"
					}
				},
				"methodIdentifiers": {
					"addProgram(address)": "bd4acf03",
					"getAccessLevel_CORRECT(address)": "1bbdec16",
					"getAccessLevel_WRONG(address)": "af066a00",
					"programExists(address)": "02e55897",
					"setAccessLevel(address,uint8)": "da4d934a"
				}
			},
			"storageLayout": {
				"storage": [
					{
						"astId": 12,
						"contract": "contracts/MemoryArray.sol:MemoryArray",
						"label": "accessLevels",
						"offset": 0,
						"slot": "0",
						"type": "t_mapping(t_address,t_mapping(t_address,t_uint8))"
					},
					{
						"astId": 15,
						"contract": "contracts/MemoryArray.sol:MemoryArray",
						"label": "programs",
						"offset": 0,
						"slot": "1",
						"type": "t_array(t_address)dyn_storage"
					}
				],
				"types": {
					"t_address": {
						"encoding": "inplace",
						"label": "address",
						"numberOfBytes": "20"
					},
					"t_array(t_address)dyn_storage": {
						"base": "t_address",
						"encoding": "dynamic_array",
						"label": "address[]",
						"numberOfBytes": "32"
					},
					"t_mapping(t_address,t_mapping(t_address,t_uint8))": {
						"encoding": "mapping",
						"key": "t_address",
						"label": "mapping(address => mapping(address => uint8))",
						"numberOfBytes": "32",
						"value": "t_mapping(t_address,t_uint8)"
					},
					"t_mapping(t_address,t_uint8)": {
						"encoding": "mapping",
						"key": "t_address",
						"label": "mapping(address => uint8)",
						"numberOfBytes": "32",
						"value": "t_uint8"
					},
					"t_uint8": {
						"encoding": "inplace",
						"label": "uint8",
						"numberOfBytes": "1"
					}
				}
			},
			"userdoc": {
				"kind": "user",
				"methods": {},
				"version": 1
			}
		}
	}
}